{
	"Challenge1.sol": {
		"simple": {
			"abi": [
				{
					"inputs": [],
					"name": "getvalue",
					"outputs": [
						{
							"internalType": "string",
							"name": "",
							"type": "string"
						},
						{
							"internalType": "uint256",
							"name": "",
							"type": "uint256"
						},
						{
							"internalType": "address",
							"name": "",
							"type": "address"
						},
						{
							"internalType": "bool",
							"name": "",
							"type": "bool"
						}
					],
					"stateMutability": "view",
					"type": "function"
				},
				{
					"inputs": [
						{
							"internalType": "string",
							"name": "_myname",
							"type": "string"
						},
						{
							"internalType": "uint256",
							"name": "_number",
							"type": "uint256"
						},
						{
							"internalType": "address",
							"name": "_useraddress",
							"type": "address"
						},
						{
							"internalType": "bool",
							"name": "_value",
							"type": "bool"
						}
					],
					"name": "setvalue",
					"outputs": [],
					"stateMutability": "nonpayable",
					"type": "function"
				}
			],
			"devdoc": {
				"kind": "dev",
				"methods": {},
				"version": 1
			},
			"evm": {
				"assembly": "    /* \"Challenge1.sol\":61:504  contract simple{... */\n  mstore(0x40, 0x80)\n  callvalue\n  dup1\n  iszero\n  tag_1\n  jumpi\n  0x00\n  dup1\n  revert\ntag_1:\n  pop\n  dataSize(sub_0)\n  dup1\n  dataOffset(sub_0)\n  0x00\n  codecopy\n  0x00\n  return\nstop\n\nsub_0: assembly {\n        /* \"Challenge1.sol\":61:504  contract simple{... */\n      mstore(0x40, 0x80)\n      callvalue\n      dup1\n      iszero\n      tag_1\n      jumpi\n      0x00\n      dup1\n      revert\n    tag_1:\n      pop\n      jumpi(tag_2, lt(calldatasize, 0x04))\n      shr(0xe0, calldataload(0x00))\n      dup1\n      0x30bf1024\n      eq\n      tag_3\n      jumpi\n      dup1\n      0x69bd01c4\n      eq\n      tag_4\n      jumpi\n    tag_2:\n      0x00\n      dup1\n      revert\n        /* \"Challenge1.sol\":160:362  function setvalue(string memory _myname, uint _number, address _useraddress, bool _value) public  {... */\n    tag_3:\n      tag_5\n      0x04\n      dup1\n      calldatasize\n      sub\n      dup2\n      add\n      swap1\n      tag_6\n      swap2\n      swap1\n      tag_7\n      jump\t// in\n    tag_6:\n      tag_8\n      jump\t// in\n    tag_5:\n      stop\n        /* \"Challenge1.sol\":366:501  function getvalue() public view returns(string memory, uint, address, bool){... */\n    tag_4:\n      tag_9\n      tag_10\n      jump\t// in\n    tag_9:\n      mload(0x40)\n      tag_11\n      swap5\n      swap4\n      swap3\n      swap2\n      swap1\n      tag_12\n      jump\t// in\n    tag_11:\n      mload(0x40)\n      dup1\n      swap2\n      sub\n      swap1\n      return\n        /* \"Challenge1.sol\":160:362  function setvalue(string memory _myname, uint _number, address _useraddress, bool _value) public  {... */\n    tag_8:\n        /* \"Challenge1.sol\":274:281  _myname */\n      dup4\n        /* \"Challenge1.sol\":265:271  myname */\n      0x00\n        /* \"Challenge1.sol\":265:281  myname = _myname */\n      swap1\n      dup2\n      tag_14\n      swap2\n      swap1\n      tag_15\n      jump\t// in\n    tag_14:\n      pop\n        /* \"Challenge1.sol\":297:304  _number */\n      dup3\n        /* \"Challenge1.sol\":288:294  number */\n      0x01\n        /* \"Challenge1.sol\":288:304  number = _number */\n      dup2\n      swap1\n      sstore\n      pop\n        /* \"Challenge1.sol\":325:337  _useraddress */\n      dup2\n        /* \"Challenge1.sol\":311:322  useraddress */\n      0x02\n      0x00\n        /* \"Challenge1.sol\":311:337  useraddress = _useraddress */\n      0x0100\n      exp\n      dup2\n      sload\n      dup2\n      0xffffffffffffffffffffffffffffffffffffffff\n      mul\n      not\n      and\n      swap1\n      dup4\n      0xffffffffffffffffffffffffffffffffffffffff\n      and\n      mul\n      or\n      swap1\n      sstore\n      pop\n        /* \"Challenge1.sol\":352:358  _value */\n      dup1\n        /* \"Challenge1.sol\":344:349  value */\n      0x02\n      0x14\n        /* \"Challenge1.sol\":344:358  value = _value */\n      0x0100\n      exp\n      dup2\n      sload\n      dup2\n      0xff\n      mul\n      not\n      and\n      swap1\n      dup4\n      iszero\n      iszero\n      mul\n      or\n      swap1\n      sstore\n      pop\n        /* \"Challenge1.sol\":160:362  function setvalue(string memory _myname, uint _number, address _useraddress, bool _value) public  {... */\n      pop\n      pop\n      pop\n      pop\n      jump\t// out\n        /* \"Challenge1.sol\":366:501  function getvalue() public view returns(string memory, uint, address, bool){... */\n    tag_10:\n        /* \"Challenge1.sol\":406:419  string memory */\n      0x60\n        /* \"Challenge1.sol\":421:425  uint */\n      0x00\n        /* \"Challenge1.sol\":427:434  address */\n      dup1\n        /* \"Challenge1.sol\":436:440  bool */\n      0x00\n        /* \"Challenge1.sol\":456:462  myname */\n      dup1\n        /* \"Challenge1.sol\":464:470  number */\n      sload(0x01)\n        /* \"Challenge1.sol\":472:483  useraddress */\n      0x02\n      0x00\n      swap1\n      sload\n      swap1\n      0x0100\n      exp\n      swap1\n      div\n      0xffffffffffffffffffffffffffffffffffffffff\n      and\n        /* \"Challenge1.sol\":485:490  value */\n      0x02\n      0x14\n      swap1\n      sload\n      swap1\n      0x0100\n      exp\n      swap1\n      div\n      0xff\n      and\n        /* \"Challenge1.sol\":448:491  return (myname, number, useraddress, value) */\n      dup4\n      dup1\n      sload\n      tag_17\n      swap1\n      tag_18\n      jump\t// in\n    tag_17:\n      dup1\n      0x1f\n      add\n      0x20\n      dup1\n      swap2\n      div\n      mul\n      0x20\n      add\n      mload(0x40)\n      swap1\n      dup2\n      add\n      0x40\n      mstore\n      dup1\n      swap3\n      swap2\n      swap1\n      dup2\n      dup2\n      mstore\n      0x20\n      add\n      dup3\n      dup1\n      sload\n      tag_19\n      swap1\n      tag_18\n      jump\t// in\n    tag_19:\n      dup1\n      iszero\n      tag_20\n      jumpi\n      dup1\n      0x1f\n      lt\n      tag_21\n      jumpi\n      0x0100\n      dup1\n      dup4\n      sload\n      div\n      mul\n      dup4\n      mstore\n      swap2\n      0x20\n      add\n      swap2\n      jump(tag_20)\n    tag_21:\n      dup3\n      add\n      swap2\n      swap1\n      0x00\n      mstore\n      keccak256(0x00, 0x20)\n      swap1\n    tag_22:\n      dup2\n      sload\n      dup2\n      mstore\n      swap1\n      0x01\n      add\n      swap1\n      0x20\n      add\n      dup1\n      dup4\n      gt\n      tag_22\n      jumpi\n      dup3\n      swap1\n      sub\n      0x1f\n      and\n      dup3\n      add\n      swap2\n    tag_20:\n      pop\n      pop\n      pop\n      pop\n      pop\n      swap4\n      pop\n      swap4\n      pop\n      swap4\n      pop\n      swap4\n      pop\n      swap4\n      pop\n        /* \"Challenge1.sol\":366:501  function getvalue() public view returns(string memory, uint, address, bool){... */\n      swap1\n      swap2\n      swap3\n      swap4\n      jump\t// out\n        /* \"#utility.yul\":7:82   */\n    tag_23:\n        /* \"#utility.yul\":40:46   */\n      0x00\n        /* \"#utility.yul\":73:75   */\n      0x40\n        /* \"#utility.yul\":67:76   */\n      mload\n        /* \"#utility.yul\":57:76   */\n      swap1\n      pop\n        /* \"#utility.yul\":7:82   */\n      swap1\n      jump\t// out\n        /* \"#utility.yul\":88:205   */\n    tag_24:\n        /* \"#utility.yul\":197:198   */\n      0x00\n        /* \"#utility.yul\":194:195   */\n      dup1\n        /* \"#utility.yul\":187:199   */\n      revert\n        /* \"#utility.yul\":211:328   */\n    tag_25:\n        /* \"#utility.yul\":320:321   */\n      0x00\n        /* \"#utility.yul\":317:318   */\n      dup1\n        /* \"#utility.yul\":310:322   */\n      revert\n        /* \"#utility.yul\":334:451   */\n    tag_26:\n        /* \"#utility.yul\":443:444   */\n      0x00\n        /* \"#utility.yul\":440:441   */\n      dup1\n        /* \"#utility.yul\":433:445   */\n      revert\n        /* \"#utility.yul\":457:574   */\n    tag_27:\n        /* \"#utility.yul\":566:567   */\n      0x00\n        /* \"#utility.yul\":563:564   */\n      dup1\n        /* \"#utility.yul\":556:568   */\n      revert\n        /* \"#utility.yul\":580:682   */\n    tag_28:\n        /* \"#utility.yul\":621:627   */\n      0x00\n        /* \"#utility.yul\":672:674   */\n      0x1f\n        /* \"#utility.yul\":668:675   */\n      not\n        /* \"#utility.yul\":663:665   */\n      0x1f\n        /* \"#utility.yul\":656:661   */\n      dup4\n        /* \"#utility.yul\":652:666   */\n      add\n        /* \"#utility.yul\":648:676   */\n      and\n        /* \"#utility.yul\":638:676   */\n      swap1\n      pop\n        /* \"#utility.yul\":580:682   */\n      swap2\n      swap1\n      pop\n      jump\t// out\n        /* \"#utility.yul\":688:868   */\n    tag_29:\n        /* \"#utility.yul\":736:813   */\n      0x4e487b7100000000000000000000000000000000000000000000000000000000\n        /* \"#utility.yul\":733:734   */\n      0x00\n        /* \"#utility.yul\":726:814   */\n      mstore\n        /* \"#utility.yul\":833:837   */\n      0x41\n        /* \"#utility.yul\":830:831   */\n      0x04\n        /* \"#utility.yul\":823:838   */\n      mstore\n        /* \"#utility.yul\":857:861   */\n      0x24\n        /* \"#utility.yul\":854:855   */\n      0x00\n        /* \"#utility.yul\":847:862   */\n      revert\n        /* \"#utility.yul\":874:1155   */\n    tag_30:\n        /* \"#utility.yul\":957:984   */\n      tag_78\n        /* \"#utility.yul\":979:983   */\n      dup3\n        /* \"#utility.yul\":957:984   */\n      tag_28\n      jump\t// in\n    tag_78:\n        /* \"#utility.yul\":949:955   */\n      dup2\n        /* \"#utility.yul\":945:985   */\n      add\n        /* \"#utility.yul\":1087:1093   */\n      dup2\n        /* \"#utility.yul\":1075:1085   */\n      dup2\n        /* \"#utility.yul\":1072:1094   */\n      lt\n        /* \"#utility.yul\":1051:1069   */\n      0xffffffffffffffff\n        /* \"#utility.yul\":1039:1049   */\n      dup3\n        /* \"#utility.yul\":1036:1070   */\n      gt\n        /* \"#utility.yul\":1033:1095   */\n      or\n        /* \"#utility.yul\":1030:1118   */\n      iszero\n      tag_79\n      jumpi\n        /* \"#utility.yul\":1098:1116   */\n      tag_80\n      tag_29\n      jump\t// in\n    tag_80:\n        /* \"#utility.yul\":1030:1118   */\n    tag_79:\n        /* \"#utility.yul\":1138:1148   */\n      dup1\n        /* \"#utility.yul\":1134:1136   */\n      0x40\n        /* \"#utility.yul\":1127:1149   */\n      mstore\n        /* \"#utility.yul\":917:1155   */\n      pop\n        /* \"#utility.yul\":874:1155   */\n      pop\n      pop\n      jump\t// out\n        /* \"#utility.yul\":1161:1290   */\n    tag_31:\n        /* \"#utility.yul\":1195:1201   */\n      0x00\n        /* \"#utility.yul\":1222:1242   */\n      tag_82\n      tag_23\n      jump\t// in\n    tag_82:\n        /* \"#utility.yul\":1212:1242   */\n      swap1\n      pop\n        /* \"#utility.yul\":1251:1284   */\n      tag_83\n        /* \"#utility.yul\":1279:1283   */\n      dup3\n        /* \"#utility.yul\":1271:1277   */\n      dup3\n        /* \"#utility.yul\":1251:1284   */\n      tag_30\n      jump\t// in\n    tag_83:\n        /* \"#utility.yul\":1161:1290   */\n      swap2\n      swap1\n      pop\n      jump\t// out\n        /* \"#utility.yul\":1296:1604   */\n    tag_32:\n        /* \"#utility.yul\":1358:1362   */\n      0x00\n        /* \"#utility.yul\":1448:1466   */\n      0xffffffffffffffff\n        /* \"#utility.yul\":1440:1446   */\n      dup3\n        /* \"#utility.yul\":1437:1467   */\n      gt\n        /* \"#utility.yul\":1434:1490   */\n      iszero\n      tag_85\n      jumpi\n        /* \"#utility.yul\":1470:1488   */\n      tag_86\n      tag_29\n      jump\t// in\n    tag_86:\n        /* \"#utility.yul\":1434:1490   */\n    tag_85:\n        /* \"#utility.yul\":1508:1537   */\n      tag_87\n        /* \"#utility.yul\":1530:1536   */\n      dup3\n        /* \"#utility.yul\":1508:1537   */\n      tag_28\n      jump\t// in\n    tag_87:\n        /* \"#utility.yul\":1500:1537   */\n      swap1\n      pop\n        /* \"#utility.yul\":1592:1596   */\n      0x20\n        /* \"#utility.yul\":1586:1590   */\n      dup2\n        /* \"#utility.yul\":1582:1597   */\n      add\n        /* \"#utility.yul\":1574:1597   */\n      swap1\n      pop\n        /* \"#utility.yul\":1296:1604   */\n      swap2\n      swap1\n      pop\n      jump\t// out\n        /* \"#utility.yul\":1610:1758   */\n    tag_33:\n        /* \"#utility.yul\":1708:1714   */\n      dup3\n        /* \"#utility.yul\":1703:1706   */\n      dup2\n        /* \"#utility.yul\":1698:1701   */\n      dup4\n        /* \"#utility.yul\":1685:1715   */\n      calldatacopy\n        /* \"#utility.yul\":1749:1750   */\n      0x00\n        /* \"#utility.yul\":1740:1746   */\n      dup4\n        /* \"#utility.yul\":1735:1738   */\n      dup4\n        /* \"#utility.yul\":1731:1747   */\n      add\n        /* \"#utility.yul\":1724:1751   */\n      mstore\n        /* \"#utility.yul\":1610:1758   */\n      pop\n      pop\n      pop\n      jump\t// out\n        /* \"#utility.yul\":1764:2189   */\n    tag_34:\n        /* \"#utility.yul\":1842:1847   */\n      0x00\n        /* \"#utility.yul\":1867:1933   */\n      tag_90\n        /* \"#utility.yul\":1883:1932   */\n      tag_91\n        /* \"#utility.yul\":1925:1931   */\n      dup5\n        /* \"#utility.yul\":1883:1932   */\n      tag_32\n      jump\t// in\n    tag_91:\n        /* \"#utility.yul\":1867:1933   */\n      tag_31\n      jump\t// in\n    tag_90:\n        /* \"#utility.yul\":1858:1933   */\n      swap1\n      pop\n        /* \"#utility.yul\":1956:1962   */\n      dup3\n        /* \"#utility.yul\":1949:1954   */\n      dup2\n        /* \"#utility.yul\":1942:1963   */\n      mstore\n        /* \"#utility.yul\":1994:1998   */\n      0x20\n        /* \"#utility.yul\":1987:1992   */\n      dup2\n        /* \"#utility.yul\":1983:1999   */\n      add\n        /* \"#utility.yul\":2032:2035   */\n      dup5\n        /* \"#utility.yul\":2023:2029   */\n      dup5\n        /* \"#utility.yul\":2018:2021   */\n      dup5\n        /* \"#utility.yul\":2014:2030   */\n      add\n        /* \"#utility.yul\":2011:2036   */\n      gt\n        /* \"#utility.yul\":2008:2120   */\n      iszero\n      tag_92\n      jumpi\n        /* \"#utility.yul\":2039:2118   */\n      tag_93\n      tag_27\n      jump\t// in\n    tag_93:\n        /* \"#utility.yul\":2008:2120   */\n    tag_92:\n        /* \"#utility.yul\":2129:2183   */\n      tag_94\n        /* \"#utility.yul\":2176:2182   */\n      dup5\n        /* \"#utility.yul\":2171:2174   */\n      dup3\n        /* \"#utility.yul\":2166:2169   */\n      dup6\n        /* \"#utility.yul\":2129:2183   */\n      tag_33\n      jump\t// in\n    tag_94:\n        /* \"#utility.yul\":1848:2189   */\n      pop\n        /* \"#utility.yul\":1764:2189   */\n      swap4\n      swap3\n      pop\n      pop\n      pop\n      jump\t// out\n        /* \"#utility.yul\":2209:2549   */\n    tag_35:\n        /* \"#utility.yul\":2265:2270   */\n      0x00\n        /* \"#utility.yul\":2314:2317   */\n      dup3\n        /* \"#utility.yul\":2307:2311   */\n      0x1f\n        /* \"#utility.yul\":2299:2305   */\n      dup4\n        /* \"#utility.yul\":2295:2312   */\n      add\n        /* \"#utility.yul\":2291:2318   */\n      slt\n        /* \"#utility.yul\":2281:2403   */\n      tag_96\n      jumpi\n        /* \"#utility.yul\":2322:2401   */\n      tag_97\n      tag_26\n      jump\t// in\n    tag_97:\n        /* \"#utility.yul\":2281:2403   */\n    tag_96:\n        /* \"#utility.yul\":2439:2445   */\n      dup2\n        /* \"#utility.yul\":2426:2446   */\n      calldataload\n        /* \"#utility.yul\":2464:2543   */\n      tag_98\n        /* \"#utility.yul\":2539:2542   */\n      dup5\n        /* \"#utility.yul\":2531:2537   */\n      dup3\n        /* \"#utility.yul\":2524:2528   */\n      0x20\n        /* \"#utility.yul\":2516:2522   */\n      dup7\n        /* \"#utility.yul\":2512:2529   */\n      add\n        /* \"#utility.yul\":2464:2543   */\n      tag_34\n      jump\t// in\n    tag_98:\n        /* \"#utility.yul\":2455:2543   */\n      swap2\n      pop\n        /* \"#utility.yul\":2271:2549   */\n      pop\n        /* \"#utility.yul\":2209:2549   */\n      swap3\n      swap2\n      pop\n      pop\n      jump\t// out\n        /* \"#utility.yul\":2555:2632   */\n    tag_36:\n        /* \"#utility.yul\":2592:2599   */\n      0x00\n        /* \"#utility.yul\":2621:2626   */\n      dup2\n        /* \"#utility.yul\":2610:2626   */\n      swap1\n      pop\n        /* \"#utility.yul\":2555:2632   */\n      swap2\n      swap1\n      pop\n      jump\t// out\n        /* \"#utility.yul\":2638:2760   */\n    tag_37:\n        /* \"#utility.yul\":2711:2735   */\n      tag_101\n        /* \"#utility.yul\":2729:2734   */\n      dup2\n        /* \"#utility.yul\":2711:2735   */\n      tag_36\n      jump\t// in\n    tag_101:\n        /* \"#utility.yul\":2704:2709   */\n      dup2\n        /* \"#utility.yul\":2701:2736   */\n      eq\n        /* \"#utility.yul\":2691:2754   */\n      tag_102\n      jumpi\n        /* \"#utility.yul\":2750:2751   */\n      0x00\n        /* \"#utility.yul\":2747:2748   */\n      dup1\n        /* \"#utility.yul\":2740:2752   */\n      revert\n        /* \"#utility.yul\":2691:2754   */\n    tag_102:\n        /* \"#utility.yul\":2638:2760   */\n      pop\n      jump\t// out\n        /* \"#utility.yul\":2766:2905   */\n    tag_38:\n        /* \"#utility.yul\":2812:2817   */\n      0x00\n        /* \"#utility.yul\":2850:2856   */\n      dup2\n        /* \"#utility.yul\":2837:2857   */\n      calldataload\n        /* \"#utility.yul\":2828:2857   */\n      swap1\n      pop\n        /* \"#utility.yul\":2866:2899   */\n      tag_104\n        /* \"#utility.yul\":2893:2898   */\n      dup2\n        /* \"#utility.yul\":2866:2899   */\n      tag_37\n      jump\t// in\n    tag_104:\n        /* \"#utility.yul\":2766:2905   */\n      swap3\n      swap2\n      pop\n      pop\n      jump\t// out\n        /* \"#utility.yul\":2911:3037   */\n    tag_39:\n        /* \"#utility.yul\":2948:2955   */\n      0x00\n        /* \"#utility.yul\":2988:3030   */\n      0xffffffffffffffffffffffffffffffffffffffff\n        /* \"#utility.yul\":2981:2986   */\n      dup3\n        /* \"#utility.yul\":2977:3031   */\n      and\n        /* \"#utility.yul\":2966:3031   */\n      swap1\n      pop\n        /* \"#utility.yul\":2911:3037   */\n      swap2\n      swap1\n      pop\n      jump\t// out\n        /* \"#utility.yul\":3043:3139   */\n    tag_40:\n        /* \"#utility.yul\":3080:3087   */\n      0x00\n        /* \"#utility.yul\":3109:3133   */\n      tag_107\n        /* \"#utility.yul\":3127:3132   */\n      dup3\n        /* \"#utility.yul\":3109:3133   */\n      tag_39\n      jump\t// in\n    tag_107:\n        /* \"#utility.yul\":3098:3133   */\n      swap1\n      pop\n        /* \"#utility.yul\":3043:3139   */\n      swap2\n      swap1\n      pop\n      jump\t// out\n        /* \"#utility.yul\":3145:3267   */\n    tag_41:\n        /* \"#utility.yul\":3218:3242   */\n      tag_109\n        /* \"#utility.yul\":3236:3241   */\n      dup2\n        /* \"#utility.yul\":3218:3242   */\n      tag_40\n      jump\t// in\n    tag_109:\n        /* \"#utility.yul\":3211:3216   */\n      dup2\n        /* \"#utility.yul\":3208:3243   */\n      eq\n        /* \"#utility.yul\":3198:3261   */\n      tag_110\n      jumpi\n        /* \"#utility.yul\":3257:3258   */\n      0x00\n        /* \"#utility.yul\":3254:3255   */\n      dup1\n        /* \"#utility.yul\":3247:3259   */\n      revert\n        /* \"#utility.yul\":3198:3261   */\n    tag_110:\n        /* \"#utility.yul\":3145:3267   */\n      pop\n      jump\t// out\n        /* \"#utility.yul\":3273:3412   */\n    tag_42:\n        /* \"#utility.yul\":3319:3324   */\n      0x00\n        /* \"#utility.yul\":3357:3363   */\n      dup2\n        /* \"#utility.yul\":3344:3364   */\n      calldataload\n        /* \"#utility.yul\":3335:3364   */\n      swap1\n      pop\n        /* \"#utility.yul\":3373:3406   */\n      tag_112\n        /* \"#utility.yul\":3400:3405   */\n      dup2\n        /* \"#utility.yul\":3373:3406   */\n      tag_41\n      jump\t// in\n    tag_112:\n        /* \"#utility.yul\":3273:3412   */\n      swap3\n      swap2\n      pop\n      pop\n      jump\t// out\n        /* \"#utility.yul\":3418:3508   */\n    tag_43:\n        /* \"#utility.yul\":3452:3459   */\n      0x00\n        /* \"#utility.yul\":3495:3500   */\n      dup2\n        /* \"#utility.yul\":3488:3501   */\n      iszero\n        /* \"#utility.yul\":3481:3502   */\n      iszero\n        /* \"#utility.yul\":3470:3502   */\n      swap1\n      pop\n        /* \"#utility.yul\":3418:3508   */\n      swap2\n      swap1\n      pop\n      jump\t// out\n        /* \"#utility.yul\":3514:3630   */\n    tag_44:\n        /* \"#utility.yul\":3584:3605   */\n      tag_115\n        /* \"#utility.yul\":3599:3604   */\n      dup2\n        /* \"#utility.yul\":3584:3605   */\n      tag_43\n      jump\t// in\n    tag_115:\n        /* \"#utility.yul\":3577:3582   */\n      dup2\n        /* \"#utility.yul\":3574:3606   */\n      eq\n        /* \"#utility.yul\":3564:3624   */\n      tag_116\n      jumpi\n        /* \"#utility.yul\":3620:3621   */\n      0x00\n        /* \"#utility.yul\":3617:3618   */\n      dup1\n        /* \"#utility.yul\":3610:3622   */\n      revert\n        /* \"#utility.yul\":3564:3624   */\n    tag_116:\n        /* \"#utility.yul\":3514:3630   */\n      pop\n      jump\t// out\n        /* \"#utility.yul\":3636:3769   */\n    tag_45:\n        /* \"#utility.yul\":3679:3684   */\n      0x00\n        /* \"#utility.yul\":3717:3723   */\n      dup2\n        /* \"#utility.yul\":3704:3724   */\n      calldataload\n        /* \"#utility.yul\":3695:3724   */\n      swap1\n      pop\n        /* \"#utility.yul\":3733:3763   */\n      tag_118\n        /* \"#utility.yul\":3757:3762   */\n      dup2\n        /* \"#utility.yul\":3733:3763   */\n      tag_44\n      jump\t// in\n    tag_118:\n        /* \"#utility.yul\":3636:3769   */\n      swap3\n      swap2\n      pop\n      pop\n      jump\t// out\n        /* \"#utility.yul\":3775:4714   */\n    tag_7:\n        /* \"#utility.yul\":3868:3874   */\n      0x00\n        /* \"#utility.yul\":3876:3882   */\n      dup1\n        /* \"#utility.yul\":3884:3890   */\n      0x00\n        /* \"#utility.yul\":3892:3898   */\n      dup1\n        /* \"#utility.yul\":3941:3944   */\n      0x80\n        /* \"#utility.yul\":3929:3938   */\n      dup6\n        /* \"#utility.yul\":3920:3927   */\n      dup8\n        /* \"#utility.yul\":3916:3939   */\n      sub\n        /* \"#utility.yul\":3912:3945   */\n      slt\n        /* \"#utility.yul\":3909:4029   */\n      iszero\n      tag_120\n      jumpi\n        /* \"#utility.yul\":3948:4027   */\n      tag_121\n      tag_24\n      jump\t// in\n    tag_121:\n        /* \"#utility.yul\":3909:4029   */\n    tag_120:\n        /* \"#utility.yul\":4096:4097   */\n      0x00\n        /* \"#utility.yul\":4085:4094   */\n      dup6\n        /* \"#utility.yul\":4081:4098   */\n      add\n        /* \"#utility.yul\":4068:4099   */\n      calldataload\n        /* \"#utility.yul\":4126:4144   */\n      0xffffffffffffffff\n        /* \"#utility.yul\":4118:4124   */\n      dup2\n        /* \"#utility.yul\":4115:4145   */\n      gt\n        /* \"#utility.yul\":4112:4229   */\n      iszero\n      tag_122\n      jumpi\n        /* \"#utility.yul\":4148:4227   */\n      tag_123\n      tag_25\n      jump\t// in\n    tag_123:\n        /* \"#utility.yul\":4112:4229   */\n    tag_122:\n        /* \"#utility.yul\":4253:4316   */\n      tag_124\n        /* \"#utility.yul\":4308:4315   */\n      dup8\n        /* \"#utility.yul\":4299:4305   */\n      dup3\n        /* \"#utility.yul\":4288:4297   */\n      dup9\n        /* \"#utility.yul\":4284:4306   */\n      add\n        /* \"#utility.yul\":4253:4316   */\n      tag_35\n      jump\t// in\n    tag_124:\n        /* \"#utility.yul\":4243:4316   */\n      swap5\n      pop\n        /* \"#utility.yul\":4039:4326   */\n      pop\n        /* \"#utility.yul\":4365:4367   */\n      0x20\n        /* \"#utility.yul\":4391:4444   */\n      tag_125\n        /* \"#utility.yul\":4436:4443   */\n      dup8\n        /* \"#utility.yul\":4427:4433   */\n      dup3\n        /* \"#utility.yul\":4416:4425   */\n      dup9\n        /* \"#utility.yul\":4412:4434   */\n      add\n        /* \"#utility.yul\":4391:4444   */\n      tag_38\n      jump\t// in\n    tag_125:\n        /* \"#utility.yul\":4381:4444   */\n      swap4\n      pop\n        /* \"#utility.yul\":4336:4454   */\n      pop\n        /* \"#utility.yul\":4493:4495   */\n      0x40\n        /* \"#utility.yul\":4519:4572   */\n      tag_126\n        /* \"#utility.yul\":4564:4571   */\n      dup8\n        /* \"#utility.yul\":4555:4561   */\n      dup3\n        /* \"#utility.yul\":4544:4553   */\n      dup9\n        /* \"#utility.yul\":4540:4562   */\n      add\n        /* \"#utility.yul\":4519:4572   */\n      tag_42\n      jump\t// in\n    tag_126:\n        /* \"#utility.yul\":4509:4572   */\n      swap3\n      pop\n        /* \"#utility.yul\":4464:4582   */\n      pop\n        /* \"#utility.yul\":4621:4623   */\n      0x60\n        /* \"#utility.yul\":4647:4697   */\n      tag_127\n        /* \"#utility.yul\":4689:4696   */\n      dup8\n        /* \"#utility.yul\":4680:4686   */\n      dup3\n        /* \"#utility.yul\":4669:4678   */\n      dup9\n        /* \"#utility.yul\":4665:4687   */\n      add\n        /* \"#utility.yul\":4647:4697   */\n      tag_45\n      jump\t// in\n    tag_127:\n        /* \"#utility.yul\":4637:4697   */\n      swap2\n      pop\n        /* \"#utility.yul\":4592:4707   */\n      pop\n        /* \"#utility.yul\":3775:4714   */\n      swap3\n      swap6\n      swap2\n      swap5\n      pop\n      swap3\n      pop\n      jump\t// out\n        /* \"#utility.yul\":4720:4819   */\n    tag_46:\n        /* \"#utility.yul\":4772:4778   */\n      0x00\n        /* \"#utility.yul\":4806:4811   */\n      dup2\n        /* \"#utility.yul\":4800:4812   */\n      mload\n        /* \"#utility.yul\":4790:4812   */\n      swap1\n      pop\n        /* \"#utility.yul\":4720:4819   */\n      swap2\n      swap1\n      pop\n      jump\t// out\n        /* \"#utility.yul\":4825:4994   */\n    tag_47:\n        /* \"#utility.yul\":4909:4920   */\n      0x00\n        /* \"#utility.yul\":4943:4949   */\n      dup3\n        /* \"#utility.yul\":4938:4941   */\n      dup3\n        /* \"#utility.yul\":4931:4950   */\n      mstore\n        /* \"#utility.yul\":4983:4987   */\n      0x20\n        /* \"#utility.yul\":4978:4981   */\n      dup3\n        /* \"#utility.yul\":4974:4988   */\n      add\n        /* \"#utility.yul\":4959:4988   */\n      swap1\n      pop\n        /* \"#utility.yul\":4825:4994   */\n      swap3\n      swap2\n      pop\n      pop\n      jump\t// out\n        /* \"#utility.yul\":5000:5139   */\n    tag_48:\n        /* \"#utility.yul\":5089:5095   */\n      dup3\n        /* \"#utility.yul\":5084:5087   */\n      dup2\n        /* \"#utility.yul\":5079:5082   */\n      dup4\n        /* \"#utility.yul\":5073:5096   */\n      mcopy\n        /* \"#utility.yul\":5130:5131   */\n      0x00\n        /* \"#utility.yul\":5121:5127   */\n      dup4\n        /* \"#utility.yul\":5116:5119   */\n      dup4\n        /* \"#utility.yul\":5112:5128   */\n      add\n        /* \"#utility.yul\":5105:5132   */\n      mstore\n        /* \"#utility.yul\":5000:5139   */\n      pop\n      pop\n      pop\n      jump\t// out\n        /* \"#utility.yul\":5145:5522   */\n    tag_49:\n        /* \"#utility.yul\":5233:5236   */\n      0x00\n        /* \"#utility.yul\":5261:5300   */\n      tag_132\n        /* \"#utility.yul\":5294:5299   */\n      dup3\n        /* \"#utility.yul\":5261:5300   */\n      tag_46\n      jump\t// in\n    tag_132:\n        /* \"#utility.yul\":5316:5387   */\n      tag_133\n        /* \"#utility.yul\":5380:5386   */\n      dup2\n        /* \"#utility.yul\":5375:5378   */\n      dup6\n        /* \"#utility.yul\":5316:5387   */\n      tag_47\n      jump\t// in\n    tag_133:\n        /* \"#utility.yul\":5309:5387   */\n      swap4\n      pop\n        /* \"#utility.yul\":5396:5461   */\n      tag_134\n        /* \"#utility.yul\":5454:5460   */\n      dup2\n        /* \"#utility.yul\":5449:5452   */\n      dup6\n        /* \"#utility.yul\":5442:5446   */\n      0x20\n        /* \"#utility.yul\":5435:5440   */\n      dup7\n        /* \"#utility.yul\":5431:5447   */\n      add\n        /* \"#utility.yul\":5396:5461   */\n      tag_48\n      jump\t// in\n    tag_134:\n        /* \"#utility.yul\":5486:5515   */\n      tag_135\n        /* \"#utility.yul\":5508:5514   */\n      dup2\n        /* \"#utility.yul\":5486:5515   */\n      tag_28\n      jump\t// in\n    tag_135:\n        /* \"#utility.yul\":5481:5484   */\n      dup5\n        /* \"#utility.yul\":5477:5516   */\n      add\n        /* \"#utility.yul\":5470:5516   */\n      swap2\n      pop\n        /* \"#utility.yul\":5237:5522   */\n      pop\n        /* \"#utility.yul\":5145:5522   */\n      swap3\n      swap2\n      pop\n      pop\n      jump\t// out\n        /* \"#utility.yul\":5528:5646   */\n    tag_50:\n        /* \"#utility.yul\":5615:5639   */\n      tag_137\n        /* \"#utility.yul\":5633:5638   */\n      dup2\n        /* \"#utility.yul\":5615:5639   */\n      tag_36\n      jump\t// in\n    tag_137:\n        /* \"#utility.yul\":5610:5613   */\n      dup3\n        /* \"#utility.yul\":5603:5640   */\n      mstore\n        /* \"#utility.yul\":5528:5646   */\n      pop\n      pop\n      jump\t// out\n        /* \"#utility.yul\":5652:5770   */\n    tag_51:\n        /* \"#utility.yul\":5739:5763   */\n      tag_139\n        /* \"#utility.yul\":5757:5762   */\n      dup2\n        /* \"#utility.yul\":5739:5763   */\n      tag_40\n      jump\t// in\n    tag_139:\n        /* \"#utility.yul\":5734:5737   */\n      dup3\n        /* \"#utility.yul\":5727:5764   */\n      mstore\n        /* \"#utility.yul\":5652:5770   */\n      pop\n      pop\n      jump\t// out\n        /* \"#utility.yul\":5776:5885   */\n    tag_52:\n        /* \"#utility.yul\":5857:5878   */\n      tag_141\n        /* \"#utility.yul\":5872:5877   */\n      dup2\n        /* \"#utility.yul\":5857:5878   */\n      tag_43\n      jump\t// in\n    tag_141:\n        /* \"#utility.yul\":5852:5855   */\n      dup3\n        /* \"#utility.yul\":5845:5879   */\n      mstore\n        /* \"#utility.yul\":5776:5885   */\n      pop\n      pop\n      jump\t// out\n        /* \"#utility.yul\":5891:6523   */\n    tag_12:\n        /* \"#utility.yul\":6082:6086   */\n      0x00\n        /* \"#utility.yul\":6120:6123   */\n      0x80\n        /* \"#utility.yul\":6109:6118   */\n      dup3\n        /* \"#utility.yul\":6105:6124   */\n      add\n        /* \"#utility.yul\":6097:6124   */\n      swap1\n      pop\n        /* \"#utility.yul\":6170:6179   */\n      dup2\n        /* \"#utility.yul\":6164:6168   */\n      dup2\n        /* \"#utility.yul\":6160:6180   */\n      sub\n        /* \"#utility.yul\":6156:6157   */\n      0x00\n        /* \"#utility.yul\":6145:6154   */\n      dup4\n        /* \"#utility.yul\":6141:6158   */\n      add\n        /* \"#utility.yul\":6134:6181   */\n      mstore\n        /* \"#utility.yul\":6198:6276   */\n      tag_143\n        /* \"#utility.yul\":6271:6275   */\n      dup2\n        /* \"#utility.yul\":6262:6268   */\n      dup8\n        /* \"#utility.yul\":6198:6276   */\n      tag_49\n      jump\t// in\n    tag_143:\n        /* \"#utility.yul\":6190:6276   */\n      swap1\n      pop\n        /* \"#utility.yul\":6286:6358   */\n      tag_144\n        /* \"#utility.yul\":6354:6356   */\n      0x20\n        /* \"#utility.yul\":6343:6352   */\n      dup4\n        /* \"#utility.yul\":6339:6357   */\n      add\n        /* \"#utility.yul\":6330:6336   */\n      dup7\n        /* \"#utility.yul\":6286:6358   */\n      tag_50\n      jump\t// in\n    tag_144:\n        /* \"#utility.yul\":6368:6440   */\n      tag_145\n        /* \"#utility.yul\":6436:6438   */\n      0x40\n        /* \"#utility.yul\":6425:6434   */\n      dup4\n        /* \"#utility.yul\":6421:6439   */\n      add\n        /* \"#utility.yul\":6412:6418   */\n      dup6\n        /* \"#utility.yul\":6368:6440   */\n      tag_51\n      jump\t// in\n    tag_145:\n        /* \"#utility.yul\":6450:6516   */\n      tag_146\n        /* \"#utility.yul\":6512:6514   */\n      0x60\n        /* \"#utility.yul\":6501:6510   */\n      dup4\n        /* \"#utility.yul\":6497:6515   */\n      add\n        /* \"#utility.yul\":6488:6494   */\n      dup5\n        /* \"#utility.yul\":6450:6516   */\n      tag_52\n      jump\t// in\n    tag_146:\n        /* \"#utility.yul\":5891:6523   */\n      swap6\n      swap5\n      pop\n      pop\n      pop\n      pop\n      pop\n      jump\t// out\n        /* \"#utility.yul\":6529:6709   */\n    tag_53:\n        /* \"#utility.yul\":6577:6654   */\n      0x4e487b7100000000000000000000000000000000000000000000000000000000\n        /* \"#utility.yul\":6574:6575   */\n      0x00\n        /* \"#utility.yul\":6567:6655   */\n      mstore\n        /* \"#utility.yul\":6674:6678   */\n      0x22\n        /* \"#utility.yul\":6671:6672   */\n      0x04\n        /* \"#utility.yul\":6664:6679   */\n      mstore\n        /* \"#utility.yul\":6698:6702   */\n      0x24\n        /* \"#utility.yul\":6695:6696   */\n      0x00\n        /* \"#utility.yul\":6688:6703   */\n      revert\n        /* \"#utility.yul\":6715:7035   */\n    tag_18:\n        /* \"#utility.yul\":6759:6765   */\n      0x00\n        /* \"#utility.yul\":6796:6797   */\n      0x02\n        /* \"#utility.yul\":6790:6794   */\n      dup3\n        /* \"#utility.yul\":6786:6798   */\n      div\n        /* \"#utility.yul\":6776:6798   */\n      swap1\n      pop\n        /* \"#utility.yul\":6843:6844   */\n      0x01\n        /* \"#utility.yul\":6837:6841   */\n      dup3\n        /* \"#utility.yul\":6833:6845   */\n      and\n        /* \"#utility.yul\":6864:6882   */\n      dup1\n        /* \"#utility.yul\":6854:6935   */\n      tag_149\n      jumpi\n        /* \"#utility.yul\":6920:6924   */\n      0x7f\n        /* \"#utility.yul\":6912:6918   */\n      dup3\n        /* \"#utility.yul\":6908:6925   */\n      and\n        /* \"#utility.yul\":6898:6925   */\n      swap2\n      pop\n        /* \"#utility.yul\":6854:6935   */\n    tag_149:\n        /* \"#utility.yul\":6982:6984   */\n      0x20\n        /* \"#utility.yul\":6974:6980   */\n      dup3\n        /* \"#utility.yul\":6971:6985   */\n      lt\n        /* \"#utility.yul\":6951:6969   */\n      dup2\n        /* \"#utility.yul\":6948:6986   */\n      sub\n        /* \"#utility.yul\":6945:7029   */\n      tag_150\n      jumpi\n        /* \"#utility.yul\":7001:7019   */\n      tag_151\n      tag_53\n      jump\t// in\n    tag_151:\n        /* \"#utility.yul\":6945:7029   */\n    tag_150:\n        /* \"#utility.yul\":6766:7035   */\n      pop\n        /* \"#utility.yul\":6715:7035   */\n      swap2\n      swap1\n      pop\n      jump\t// out\n        /* \"#utility.yul\":7041:7182   */\n    tag_54:\n        /* \"#utility.yul\":7090:7094   */\n      0x00\n        /* \"#utility.yul\":7113:7116   */\n      dup2\n        /* \"#utility.yul\":7105:7116   */\n      swap1\n      pop\n        /* \"#utility.yul\":7136:7139   */\n      dup2\n        /* \"#utility.yul\":7133:7134   */\n      0x00\n        /* \"#utility.yul\":7126:7140   */\n      mstore\n        /* \"#utility.yul\":7170:7174   */\n      0x20\n        /* \"#utility.yul\":7167:7168   */\n      0x00\n        /* \"#utility.yul\":7157:7175   */\n      keccak256\n        /* \"#utility.yul\":7149:7175   */\n      swap1\n      pop\n        /* \"#utility.yul\":7041:7182   */\n      swap2\n      swap1\n      pop\n      jump\t// out\n        /* \"#utility.yul\":7188:7281   */\n    tag_55:\n        /* \"#utility.yul\":7225:7231   */\n      0x00\n        /* \"#utility.yul\":7272:7274   */\n      0x20\n        /* \"#utility.yul\":7267:7269   */\n      0x1f\n        /* \"#utility.yul\":7260:7265   */\n      dup4\n        /* \"#utility.yul\":7256:7270   */\n      add\n        /* \"#utility.yul\":7252:7275   */\n      div\n        /* \"#utility.yul\":7242:7275   */\n      swap1\n      pop\n        /* \"#utility.yul\":7188:7281   */\n      swap2\n      swap1\n      pop\n      jump\t// out\n        /* \"#utility.yul\":7287:7394   */\n    tag_56:\n        /* \"#utility.yul\":7331:7339   */\n      0x00\n        /* \"#utility.yul\":7381:7386   */\n      dup3\n        /* \"#utility.yul\":7375:7379   */\n      dup3\n        /* \"#utility.yul\":7371:7387   */\n      shl\n        /* \"#utility.yul\":7350:7387   */\n      swap1\n      pop\n        /* \"#utility.yul\":7287:7394   */\n      swap3\n      swap2\n      pop\n      pop\n      jump\t// out\n        /* \"#utility.yul\":7400:7793   */\n    tag_57:\n        /* \"#utility.yul\":7469:7475   */\n      0x00\n        /* \"#utility.yul\":7519:7520   */\n      0x08\n        /* \"#utility.yul\":7507:7517   */\n      dup4\n        /* \"#utility.yul\":7503:7521   */\n      mul\n        /* \"#utility.yul\":7542:7639   */\n      tag_156\n        /* \"#utility.yul\":7572:7638   */\n      0xffffffffffffffffffffffffffffffffffffffffffffffffffffffffffffffff\n        /* \"#utility.yul\":7561:7570   */\n      dup3\n        /* \"#utility.yul\":7542:7639   */\n      tag_56\n      jump\t// in\n    tag_156:\n        /* \"#utility.yul\":7660:7699   */\n      tag_157\n        /* \"#utility.yul\":7690:7698   */\n      dup7\n        /* \"#utility.yul\":7679:7688   */\n      dup4\n        /* \"#utility.yul\":7660:7699   */\n      tag_56\n      jump\t// in\n    tag_157:\n        /* \"#utility.yul\":7648:7699   */\n      swap6\n      pop\n        /* \"#utility.yul\":7732:7736   */\n      dup1\n        /* \"#utility.yul\":7728:7737   */\n      not\n        /* \"#utility.yul\":7721:7726   */\n      dup5\n        /* \"#utility.yul\":7717:7738   */\n      and\n        /* \"#utility.yul\":7708:7738   */\n      swap4\n      pop\n        /* \"#utility.yul\":7781:7785   */\n      dup1\n        /* \"#utility.yul\":7771:7779   */\n      dup7\n        /* \"#utility.yul\":7767:7786   */\n      and\n        /* \"#utility.yul\":7760:7765   */\n      dup5\n        /* \"#utility.yul\":7757:7787   */\n      or\n        /* \"#utility.yul\":7747:7787   */\n      swap3\n      pop\n        /* \"#utility.yul\":7476:7793   */\n      pop\n      pop\n        /* \"#utility.yul\":7400:7793   */\n      swap4\n      swap3\n      pop\n      pop\n      pop\n      jump\t// out\n        /* \"#utility.yul\":7799:7859   */\n    tag_58:\n        /* \"#utility.yul\":7827:7830   */\n      0x00\n        /* \"#utility.yul\":7848:7853   */\n      dup2\n        /* \"#utility.yul\":7841:7853   */\n      swap1\n      pop\n        /* \"#utility.yul\":7799:7859   */\n      swap2\n      swap1\n      pop\n      jump\t// out\n        /* \"#utility.yul\":7865:8007   */\n    tag_59:\n        /* \"#utility.yul\":7915:7924   */\n      0x00\n        /* \"#utility.yul\":7948:8001   */\n      tag_160\n        /* \"#utility.yul\":7966:8000   */\n      tag_161\n        /* \"#utility.yul\":7975:7999   */\n      tag_162\n        /* \"#utility.yul\":7993:7998   */\n      dup5\n        /* \"#utility.yul\":7975:7999   */\n      tag_36\n      jump\t// in\n    tag_162:\n        /* \"#utility.yul\":7966:8000   */\n      tag_58\n      jump\t// in\n    tag_161:\n        /* \"#utility.yul\":7948:8001   */\n      tag_36\n      jump\t// in\n    tag_160:\n        /* \"#utility.yul\":7935:8001   */\n      swap1\n      pop\n        /* \"#utility.yul\":7865:8007   */\n      swap2\n      swap1\n      pop\n      jump\t// out\n        /* \"#utility.yul\":8013:8088   */\n    tag_60:\n        /* \"#utility.yul\":8056:8059   */\n      0x00\n        /* \"#utility.yul\":8077:8082   */\n      dup2\n        /* \"#utility.yul\":8070:8082   */\n      swap1\n      pop\n        /* \"#utility.yul\":8013:8088   */\n      swap2\n      swap1\n      pop\n      jump\t// out\n        /* \"#utility.yul\":8094:8363   */\n    tag_61:\n        /* \"#utility.yul\":8204:8243   */\n      tag_165\n        /* \"#utility.yul\":8235:8242   */\n      dup4\n        /* \"#utility.yul\":8204:8243   */\n      tag_59\n      jump\t// in\n    tag_165:\n        /* \"#utility.yul\":8265:8356   */\n      tag_166\n        /* \"#utility.yul\":8314:8355   */\n      tag_167\n        /* \"#utility.yul\":8338:8354   */\n      dup3\n        /* \"#utility.yul\":8314:8355   */\n      tag_60\n      jump\t// in\n    tag_167:\n        /* \"#utility.yul\":8306:8312   */\n      dup5\n        /* \"#utility.yul\":8299:8303   */\n      dup5\n        /* \"#utility.yul\":8293:8304   */\n      sload\n        /* \"#utility.yul\":8265:8356   */\n      tag_57\n      jump\t// in\n    tag_166:\n        /* \"#utility.yul\":8259:8263   */\n      dup3\n        /* \"#utility.yul\":8252:8357   */\n      sstore\n        /* \"#utility.yul\":8170:8363   */\n      pop\n        /* \"#utility.yul\":8094:8363   */\n      pop\n      pop\n      pop\n      jump\t// out\n        /* \"#utility.yul\":8369:8442   */\n    tag_62:\n        /* \"#utility.yul\":8414:8417   */\n      0x00\n        /* \"#utility.yul\":8369:8442   */\n      swap1\n      jump\t// out\n        /* \"#utility.yul\":8448:8637   */\n    tag_63:\n        /* \"#utility.yul\":8525:8557   */\n      tag_170\n      tag_62\n      jump\t// in\n    tag_170:\n        /* \"#utility.yul\":8566:8631   */\n      tag_171\n        /* \"#utility.yul\":8624:8630   */\n      dup2\n        /* \"#utility.yul\":8616:8622   */\n      dup5\n        /* \"#utility.yul\":8610:8614   */\n      dup5\n        /* \"#utility.yul\":8566:8631   */\n      tag_61\n      jump\t// in\n    tag_171:\n        /* \"#utility.yul\":8501:8637   */\n      pop\n        /* \"#utility.yul\":8448:8637   */\n      pop\n      pop\n      jump\t// out\n        /* \"#utility.yul\":8643:8829   */\n    tag_64:\n        /* \"#utility.yul\":8703:8823   */\n    tag_173:\n        /* \"#utility.yul\":8720:8723   */\n      dup2\n        /* \"#utility.yul\":8713:8718   */\n      dup2\n        /* \"#utility.yul\":8710:8724   */\n      lt\n        /* \"#utility.yul\":8703:8823   */\n      iszero\n      tag_175\n      jumpi\n        /* \"#utility.yul\":8774:8813   */\n      tag_176\n        /* \"#utility.yul\":8811:8812   */\n      0x00\n        /* \"#utility.yul\":8804:8809   */\n      dup3\n        /* \"#utility.yul\":8774:8813   */\n      tag_63\n      jump\t// in\n    tag_176:\n        /* \"#utility.yul\":8747:8748   */\n      0x01\n        /* \"#utility.yul\":8740:8745   */\n      dup2\n        /* \"#utility.yul\":8736:8749   */\n      add\n        /* \"#utility.yul\":8727:8749   */\n      swap1\n      pop\n        /* \"#utility.yul\":8703:8823   */\n      jump(tag_173)\n    tag_175:\n        /* \"#utility.yul\":8643:8829   */\n      pop\n      pop\n      jump\t// out\n        /* \"#utility.yul\":8835:9378   */\n    tag_65:\n        /* \"#utility.yul\":8936:8938   */\n      0x1f\n        /* \"#utility.yul\":8931:8934   */\n      dup3\n        /* \"#utility.yul\":8928:8939   */\n      gt\n        /* \"#utility.yul\":8925:9371   */\n      iszero\n      tag_178\n      jumpi\n        /* \"#utility.yul\":8970:9008   */\n      tag_179\n        /* \"#utility.yul\":9002:9007   */\n      dup2\n        /* \"#utility.yul\":8970:9008   */\n      tag_54\n      jump\t// in\n    tag_179:\n        /* \"#utility.yul\":9054:9083   */\n      tag_180\n        /* \"#utility.yul\":9072:9082   */\n      dup5\n        /* \"#utility.yul\":9054:9083   */\n      tag_55\n      jump\t// in\n    tag_180:\n        /* \"#utility.yul\":9044:9052   */\n      dup2\n        /* \"#utility.yul\":9040:9084   */\n      add\n        /* \"#utility.yul\":9237:9239   */\n      0x20\n        /* \"#utility.yul\":9225:9235   */\n      dup6\n        /* \"#utility.yul\":9222:9240   */\n      lt\n        /* \"#utility.yul\":9219:9268   */\n      iszero\n      tag_181\n      jumpi\n        /* \"#utility.yul\":9258:9266   */\n      dup2\n        /* \"#utility.yul\":9243:9266   */\n      swap1\n      pop\n        /* \"#utility.yul\":9219:9268   */\n    tag_181:\n        /* \"#utility.yul\":9281:9361   */\n      tag_182\n        /* \"#utility.yul\":9337:9359   */\n      tag_183\n        /* \"#utility.yul\":9355:9358   */\n      dup6\n        /* \"#utility.yul\":9337:9359   */\n      tag_55\n      jump\t// in\n    tag_183:\n        /* \"#utility.yul\":9327:9335   */\n      dup4\n        /* \"#utility.yul\":9323:9360   */\n      add\n        /* \"#utility.yul\":9310:9321   */\n      dup3\n        /* \"#utility.yul\":9281:9361   */\n      tag_64\n      jump\t// in\n    tag_182:\n        /* \"#utility.yul\":8940:9371   */\n      pop\n      pop\n        /* \"#utility.yul\":8925:9371   */\n    tag_178:\n        /* \"#utility.yul\":8835:9378   */\n      pop\n      pop\n      pop\n      jump\t// out\n        /* \"#utility.yul\":9384:9501   */\n    tag_66:\n        /* \"#utility.yul\":9438:9446   */\n      0x00\n        /* \"#utility.yul\":9488:9493   */\n      dup3\n        /* \"#utility.yul\":9482:9486   */\n      dup3\n        /* \"#utility.yul\":9478:9494   */\n      shr\n        /* \"#utility.yul\":9457:9494   */\n      swap1\n      pop\n        /* \"#utility.yul\":9384:9501   */\n      swap3\n      swap2\n      pop\n      pop\n      jump\t// out\n        /* \"#utility.yul\":9507:9676   */\n    tag_67:\n        /* \"#utility.yul\":9551:9557   */\n      0x00\n        /* \"#utility.yul\":9584:9635   */\n      tag_186\n        /* \"#utility.yul\":9632:9633   */\n      0x00\n        /* \"#utility.yul\":9628:9634   */\n      not\n        /* \"#utility.yul\":9620:9625   */\n      dup5\n        /* \"#utility.yul\":9617:9618   */\n      0x08\n        /* \"#utility.yul\":9613:9626   */\n      mul\n        /* \"#utility.yul\":9584:9635   */\n      tag_66\n      jump\t// in\n    tag_186:\n        /* \"#utility.yul\":9580:9636   */\n      not\n        /* \"#utility.yul\":9665:9669   */\n      dup1\n        /* \"#utility.yul\":9659:9663   */\n      dup4\n        /* \"#utility.yul\":9655:9670   */\n      and\n        /* \"#utility.yul\":9645:9670   */\n      swap2\n      pop\n        /* \"#utility.yul\":9558:9676   */\n      pop\n        /* \"#utility.yul\":9507:9676   */\n      swap3\n      swap2\n      pop\n      pop\n      jump\t// out\n        /* \"#utility.yul\":9681:9976   */\n    tag_68:\n        /* \"#utility.yul\":9757:9761   */\n      0x00\n        /* \"#utility.yul\":9903:9932   */\n      tag_188\n        /* \"#utility.yul\":9928:9931   */\n      dup4\n        /* \"#utility.yul\":9922:9926   */\n      dup4\n        /* \"#utility.yul\":9903:9932   */\n      tag_67\n      jump\t// in\n    tag_188:\n        /* \"#utility.yul\":9895:9932   */\n      swap2\n      pop\n        /* \"#utility.yul\":9965:9968   */\n      dup3\n        /* \"#utility.yul\":9962:9963   */\n      0x02\n        /* \"#utility.yul\":9958:9969   */\n      mul\n        /* \"#utility.yul\":9952:9956   */\n      dup3\n        /* \"#utility.yul\":9949:9970   */\n      or\n        /* \"#utility.yul\":9941:9970   */\n      swap1\n      pop\n        /* \"#utility.yul\":9681:9976   */\n      swap3\n      swap2\n      pop\n      pop\n      jump\t// out\n        /* \"#utility.yul\":9981:11376   */\n    tag_15:\n        /* \"#utility.yul\":10098:10135   */\n      tag_190\n        /* \"#utility.yul\":10131:10134   */\n      dup3\n        /* \"#utility.yul\":10098:10135   */\n      tag_46\n      jump\t// in\n    tag_190:\n        /* \"#utility.yul\":10200:10218   */\n      0xffffffffffffffff\n        /* \"#utility.yul\":10192:10198   */\n      dup2\n        /* \"#utility.yul\":10189:10219   */\n      gt\n        /* \"#utility.yul\":10186:10242   */\n      iszero\n      tag_191\n      jumpi\n        /* \"#utility.yul\":10222:10240   */\n      tag_192\n      tag_29\n      jump\t// in\n    tag_192:\n        /* \"#utility.yul\":10186:10242   */\n    tag_191:\n        /* \"#utility.yul\":10266:10304   */\n      tag_193\n        /* \"#utility.yul\":10298:10302   */\n      dup3\n        /* \"#utility.yul\":10292:10303   */\n      sload\n        /* \"#utility.yul\":10266:10304   */\n      tag_18\n      jump\t// in\n    tag_193:\n        /* \"#utility.yul\":10351:10418   */\n      tag_194\n        /* \"#utility.yul\":10411:10417   */\n      dup3\n        /* \"#utility.yul\":10403:10409   */\n      dup3\n        /* \"#utility.yul\":10397:10401   */\n      dup6\n        /* \"#utility.yul\":10351:10418   */\n      tag_65\n      jump\t// in\n    tag_194:\n        /* \"#utility.yul\":10445:10446   */\n      0x00\n        /* \"#utility.yul\":10469:10473   */\n      0x20\n        /* \"#utility.yul\":10456:10473   */\n      swap1\n      pop\n        /* \"#utility.yul\":10501:10503   */\n      0x1f\n        /* \"#utility.yul\":10493:10499   */\n      dup4\n        /* \"#utility.yul\":10490:10504   */\n      gt\n        /* \"#utility.yul\":10518:10519   */\n      0x01\n        /* \"#utility.yul\":10513:11131   */\n      dup2\n      eq\n      tag_196\n      jumpi\n        /* \"#utility.yul\":11175:11176   */\n      0x00\n        /* \"#utility.yul\":11192:11198   */\n      dup5\n        /* \"#utility.yul\":11189:11266   */\n      iszero\n      tag_197\n      jumpi\n        /* \"#utility.yul\":11241:11250   */\n      dup3\n        /* \"#utility.yul\":11236:11239   */\n      dup8\n        /* \"#utility.yul\":11232:11251   */\n      add\n        /* \"#utility.yul\":11226:11252   */\n      mload\n        /* \"#utility.yul\":11217:11252   */\n      swap1\n      pop\n        /* \"#utility.yul\":11189:11266   */\n    tag_197:\n        /* \"#utility.yul\":11292:11359   */\n      tag_198\n        /* \"#utility.yul\":11352:11358   */\n      dup6\n        /* \"#utility.yul\":11345:11350   */\n      dup3\n        /* \"#utility.yul\":11292:11359   */\n      tag_68\n      jump\t// in\n    tag_198:\n        /* \"#utility.yul\":11286:11290   */\n      dup7\n        /* \"#utility.yul\":11279:11360   */\n      sstore\n        /* \"#utility.yul\":11148:11370   */\n      pop\n        /* \"#utility.yul\":10483:11370   */\n      jump(tag_195)\n        /* \"#utility.yul\":10513:11131   */\n    tag_196:\n        /* \"#utility.yul\":10565:10569   */\n      0x1f\n        /* \"#utility.yul\":10561:10570   */\n      not\n        /* \"#utility.yul\":10553:10559   */\n      dup5\n        /* \"#utility.yul\":10549:10571   */\n      and\n        /* \"#utility.yul\":10599:10636   */\n      tag_199\n        /* \"#utility.yul\":10631:10635   */\n      dup7\n        /* \"#utility.yul\":10599:10636   */\n      tag_54\n      jump\t// in\n    tag_199:\n        /* \"#utility.yul\":10658:10659   */\n      0x00\n        /* \"#utility.yul\":10672:10880   */\n    tag_200:\n        /* \"#utility.yul\":10686:10693   */\n      dup3\n        /* \"#utility.yul\":10683:10684   */\n      dup2\n        /* \"#utility.yul\":10680:10694   */\n      lt\n        /* \"#utility.yul\":10672:10880   */\n      iszero\n      tag_202\n      jumpi\n        /* \"#utility.yul\":10765:10774   */\n      dup5\n        /* \"#utility.yul\":10760:10763   */\n      dup10\n        /* \"#utility.yul\":10756:10775   */\n      add\n        /* \"#utility.yul\":10750:10776   */\n      mload\n        /* \"#utility.yul\":10742:10748   */\n      dup3\n        /* \"#utility.yul\":10735:10777   */\n      sstore\n        /* \"#utility.yul\":10816:10817   */\n      0x01\n        /* \"#utility.yul\":10808:10814   */\n      dup3\n        /* \"#utility.yul\":10804:10818   */\n      add\n        /* \"#utility.yul\":10794:10818   */\n      swap2\n      pop\n        /* \"#utility.yul\":10863:10865   */\n      0x20\n        /* \"#utility.yul\":10852:10861   */\n      dup6\n        /* \"#utility.yul\":10848:10866   */\n      add\n        /* \"#utility.yul\":10835:10866   */\n      swap5\n      pop\n        /* \"#utility.yul\":10709:10713   */\n      0x20\n        /* \"#utility.yul\":10706:10707   */\n      dup2\n        /* \"#utility.yul\":10702:10714   */\n      add\n        /* \"#utility.yul\":10697:10714   */\n      swap1\n      pop\n        /* \"#utility.yul\":10672:10880   */\n      jump(tag_200)\n    tag_202:\n        /* \"#utility.yul\":10908:10914   */\n      dup7\n        /* \"#utility.yul\":10899:10906   */\n      dup4\n        /* \"#utility.yul\":10896:10915   */\n      lt\n        /* \"#utility.yul\":10893:11072   */\n      iszero\n      tag_203\n      jumpi\n        /* \"#utility.yul\":10966:10975   */\n      dup5\n        /* \"#utility.yul\":10961:10964   */\n      dup10\n        /* \"#utility.yul\":10957:10976   */\n      add\n        /* \"#utility.yul\":10951:10977   */\n      mload\n        /* \"#utility.yul\":11009:11057   */\n      tag_204\n        /* \"#utility.yul\":11051:11055   */\n      0x1f\n        /* \"#utility.yul\":11043:11049   */\n      dup10\n        /* \"#utility.yul\":11039:11056   */\n      and\n        /* \"#utility.yul\":11028:11037   */\n      dup3\n        /* \"#utility.yul\":11009:11057   */\n      tag_67\n      jump\t// in\n    tag_204:\n        /* \"#utility.yul\":11001:11007   */\n      dup4\n        /* \"#utility.yul\":10994:11058   */\n      sstore\n        /* \"#utility.yul\":10916:11072   */\n      pop\n        /* \"#utility.yul\":10893:11072   */\n    tag_203:\n        /* \"#utility.yul\":11118:11119   */\n      0x01\n        /* \"#utility.yul\":11114:11115   */\n      0x02\n        /* \"#utility.yul\":11106:11112   */\n      dup9\n        /* \"#utility.yul\":11102:11116   */\n      mul\n        /* \"#utility.yul\":11098:11120   */\n      add\n        /* \"#utility.yul\":11092:11096   */\n      dup9\n        /* \"#utility.yul\":11085:11121   */\n      sstore\n        /* \"#utility.yul\":10520:11131   */\n      pop\n      pop\n      pop\n        /* \"#utility.yul\":10483:11370   */\n    tag_195:\n      pop\n        /* \"#utility.yul\":10073:11376   */\n      pop\n      pop\n      pop\n        /* \"#utility.yul\":9981:11376   */\n      pop\n      pop\n      jump\t// out\n\n    auxdata: 0xa2646970667358221220ac7e104e84993d682b5fabf6f18036a43cf1cc0f0fb8d33b8892d588e69c29e964736f6c634300081a0033\n}\n",
				"bytecode": {
					"linkReferences": {},
					"object": "6080604052348015600e575f80fd5b506108238061001c5f395ff3fe608060405234801561000f575f80fd5b5060043610610034575f3560e01c806330bf10241461003857806369bd01c414610054575b5f80fd5b610052600480360381019061004d91906103cd565b610075565b005b61005c6100eb565b60405161006c94939291906104da565b60405180910390f35b835f9081610083919061071e565b50826001819055508160025f6101000a81548173ffffffffffffffffffffffffffffffffffffffff021916908373ffffffffffffffffffffffffffffffffffffffff16021790555080600260146101000a81548160ff02191690831515021790555050505050565b60605f805f8060015460025f9054906101000a900473ffffffffffffffffffffffffffffffffffffffff16600260149054906101000a900460ff1683805461013290610551565b80601f016020809104026020016040519081016040528092919081815260200182805461015e90610551565b80156101a95780601f10610180576101008083540402835291602001916101a9565b820191905f5260205f20905b81548152906001019060200180831161018c57829003601f168201915b50505050509350935093509350935090919293565b5f604051905090565b5f80fd5b5f80fd5b5f80fd5b5f80fd5b5f601f19601f8301169050919050565b7f4e487b71000000000000000000000000000000000000000000000000000000005f52604160045260245ffd5b61021d826101d7565b810181811067ffffffffffffffff8211171561023c5761023b6101e7565b5b80604052505050565b5f61024e6101be565b905061025a8282610214565b919050565b5f67ffffffffffffffff821115610279576102786101e7565b5b610282826101d7565b9050602081019050919050565b828183375f83830152505050565b5f6102af6102aa8461025f565b610245565b9050828152602081018484840111156102cb576102ca6101d3565b5b6102d684828561028f565b509392505050565b5f82601f8301126102f2576102f16101cf565b5b813561030284826020860161029d565b91505092915050565b5f819050919050565b61031d8161030b565b8114610327575f80fd5b50565b5f8135905061033881610314565b92915050565b5f73ffffffffffffffffffffffffffffffffffffffff82169050919050565b5f6103678261033e565b9050919050565b6103778161035d565b8114610381575f80fd5b50565b5f813590506103928161036e565b92915050565b5f8115159050919050565b6103ac81610398565b81146103b6575f80fd5b50565b5f813590506103c7816103a3565b92915050565b5f805f80608085870312156103e5576103e46101c7565b5b5f85013567ffffffffffffffff811115610402576104016101cb565b5b61040e878288016102de565b945050602061041f8782880161032a565b935050604061043087828801610384565b9250506060610441878288016103b9565b91505092959194509250565b5f81519050919050565b5f82825260208201905092915050565b8281835e5f83830152505050565b5f61047f8261044d565b6104898185610457565b9350610499818560208601610467565b6104a2816101d7565b840191505092915050565b6104b68161030b565b82525050565b6104c58161035d565b82525050565b6104d481610398565b82525050565b5f6080820190508181035f8301526104f28187610475565b905061050160208301866104ad565b61050e60408301856104bc565b61051b60608301846104cb565b95945050505050565b7f4e487b71000000000000000000000000000000000000000000000000000000005f52602260045260245ffd5b5f600282049050600182168061056857607f821691505b60208210810361057b5761057a610524565b5b50919050565b5f819050815f5260205f209050919050565b5f6020601f8301049050919050565b5f82821b905092915050565b5f600883026105dd7fffffffffffffffffffffffffffffffffffffffffffffffffffffffffffffffff826105a2565b6105e786836105a2565b95508019841693508086168417925050509392505050565b5f819050919050565b5f61062261061d6106188461030b565b6105ff565b61030b565b9050919050565b5f819050919050565b61063b83610608565b61064f61064782610629565b8484546105ae565b825550505050565b5f90565b610663610657565b61066e818484610632565b505050565b5b81811015610691576106865f8261065b565b600181019050610674565b5050565b601f8211156106d6576106a781610581565b6106b084610593565b810160208510156106bf578190505b6106d36106cb85610593565b830182610673565b50505b505050565b5f82821c905092915050565b5f6106f65f19846008026106db565b1980831691505092915050565b5f61070e83836106e7565b9150826002028217905092915050565b6107278261044d565b67ffffffffffffffff8111156107405761073f6101e7565b5b61074a8254610551565b610755828285610695565b5f60209050601f831160018114610786575f8415610774578287015190505b61077e8582610703565b8655506107e5565b601f19841661079486610581565b5f5b828110156107bb57848901518255600182019150602085019450602081019050610796565b868310156107d857848901516107d4601f8916826106e7565b8355505b6001600288020188555050505b50505050505056fea2646970667358221220ac7e104e84993d682b5fabf6f18036a43cf1cc0f0fb8d33b8892d588e69c29e964736f6c634300081a0033",
					"opcodes": "PUSH1 0x80 PUSH1 0x40 MSTORE CALLVALUE DUP1 ISZERO PUSH1 0xE JUMPI PUSH0 DUP1 REVERT JUMPDEST POP PUSH2 0x823 DUP1 PUSH2 0x1C PUSH0 CODECOPY PUSH0 RETURN INVALID PUSH1 0x80 PUSH1 0x40 MSTORE CALLVALUE DUP1 ISZERO PUSH2 0xF JUMPI PUSH0 DUP1 REVERT JUMPDEST POP PUSH1 0x4 CALLDATASIZE LT PUSH2 0x34 JUMPI PUSH0 CALLDATALOAD PUSH1 0xE0 SHR DUP1 PUSH4 0x30BF1024 EQ PUSH2 0x38 JUMPI DUP1 PUSH4 0x69BD01C4 EQ PUSH2 0x54 JUMPI JUMPDEST PUSH0 DUP1 REVERT JUMPDEST PUSH2 0x52 PUSH1 0x4 DUP1 CALLDATASIZE SUB DUP2 ADD SWAP1 PUSH2 0x4D SWAP2 SWAP1 PUSH2 0x3CD JUMP JUMPDEST PUSH2 0x75 JUMP JUMPDEST STOP JUMPDEST PUSH2 0x5C PUSH2 0xEB JUMP JUMPDEST PUSH1 0x40 MLOAD PUSH2 0x6C SWAP5 SWAP4 SWAP3 SWAP2 SWAP1 PUSH2 0x4DA JUMP JUMPDEST PUSH1 0x40 MLOAD DUP1 SWAP2 SUB SWAP1 RETURN JUMPDEST DUP4 PUSH0 SWAP1 DUP2 PUSH2 0x83 SWAP2 SWAP1 PUSH2 0x71E JUMP JUMPDEST POP DUP3 PUSH1 0x1 DUP2 SWAP1 SSTORE POP DUP2 PUSH1 0x2 PUSH0 PUSH2 0x100 EXP DUP2 SLOAD DUP2 PUSH20 0xFFFFFFFFFFFFFFFFFFFFFFFFFFFFFFFFFFFFFFFF MUL NOT AND SWAP1 DUP4 PUSH20 0xFFFFFFFFFFFFFFFFFFFFFFFFFFFFFFFFFFFFFFFF AND MUL OR SWAP1 SSTORE POP DUP1 PUSH1 0x2 PUSH1 0x14 PUSH2 0x100 EXP DUP2 SLOAD DUP2 PUSH1 0xFF MUL NOT AND SWAP1 DUP4 ISZERO ISZERO MUL OR SWAP1 SSTORE POP POP POP POP POP JUMP JUMPDEST PUSH1 0x60 PUSH0 DUP1 PUSH0 DUP1 PUSH1 0x1 SLOAD PUSH1 0x2 PUSH0 SWAP1 SLOAD SWAP1 PUSH2 0x100 EXP SWAP1 DIV PUSH20 0xFFFFFFFFFFFFFFFFFFFFFFFFFFFFFFFFFFFFFFFF AND PUSH1 0x2 PUSH1 0x14 SWAP1 SLOAD SWAP1 PUSH2 0x100 EXP SWAP1 DIV PUSH1 0xFF AND DUP4 DUP1 SLOAD PUSH2 0x132 SWAP1 PUSH2 0x551 JUMP JUMPDEST DUP1 PUSH1 0x1F ADD PUSH1 0x20 DUP1 SWAP2 DIV MUL PUSH1 0x20 ADD PUSH1 0x40 MLOAD SWAP1 DUP2 ADD PUSH1 0x40 MSTORE DUP1 SWAP3 SWAP2 SWAP1 DUP2 DUP2 MSTORE PUSH1 0x20 ADD DUP3 DUP1 SLOAD PUSH2 0x15E SWAP1 PUSH2 0x551 JUMP JUMPDEST DUP1 ISZERO PUSH2 0x1A9 JUMPI DUP1 PUSH1 0x1F LT PUSH2 0x180 JUMPI PUSH2 0x100 DUP1 DUP4 SLOAD DIV MUL DUP4 MSTORE SWAP2 PUSH1 0x20 ADD SWAP2 PUSH2 0x1A9 JUMP JUMPDEST DUP3 ADD SWAP2 SWAP1 PUSH0 MSTORE PUSH1 0x20 PUSH0 KECCAK256 SWAP1 JUMPDEST DUP2 SLOAD DUP2 MSTORE SWAP1 PUSH1 0x1 ADD SWAP1 PUSH1 0x20 ADD DUP1 DUP4 GT PUSH2 0x18C JUMPI DUP3 SWAP1 SUB PUSH1 0x1F AND DUP3 ADD SWAP2 JUMPDEST POP POP POP POP POP SWAP4 POP SWAP4 POP SWAP4 POP SWAP4 POP SWAP4 POP SWAP1 SWAP2 SWAP3 SWAP4 JUMP JUMPDEST PUSH0 PUSH1 0x40 MLOAD SWAP1 POP SWAP1 JUMP JUMPDEST PUSH0 DUP1 REVERT JUMPDEST PUSH0 DUP1 REVERT JUMPDEST PUSH0 DUP1 REVERT JUMPDEST PUSH0 DUP1 REVERT JUMPDEST PUSH0 PUSH1 0x1F NOT PUSH1 0x1F DUP4 ADD AND SWAP1 POP SWAP2 SWAP1 POP JUMP JUMPDEST PUSH32 0x4E487B7100000000000000000000000000000000000000000000000000000000 PUSH0 MSTORE PUSH1 0x41 PUSH1 0x4 MSTORE PUSH1 0x24 PUSH0 REVERT JUMPDEST PUSH2 0x21D DUP3 PUSH2 0x1D7 JUMP JUMPDEST DUP2 ADD DUP2 DUP2 LT PUSH8 0xFFFFFFFFFFFFFFFF DUP3 GT OR ISZERO PUSH2 0x23C JUMPI PUSH2 0x23B PUSH2 0x1E7 JUMP JUMPDEST JUMPDEST DUP1 PUSH1 0x40 MSTORE POP POP POP JUMP JUMPDEST PUSH0 PUSH2 0x24E PUSH2 0x1BE JUMP JUMPDEST SWAP1 POP PUSH2 0x25A DUP3 DUP3 PUSH2 0x214 JUMP JUMPDEST SWAP2 SWAP1 POP JUMP JUMPDEST PUSH0 PUSH8 0xFFFFFFFFFFFFFFFF DUP3 GT ISZERO PUSH2 0x279 JUMPI PUSH2 0x278 PUSH2 0x1E7 JUMP JUMPDEST JUMPDEST PUSH2 0x282 DUP3 PUSH2 0x1D7 JUMP JUMPDEST SWAP1 POP PUSH1 0x20 DUP2 ADD SWAP1 POP SWAP2 SWAP1 POP JUMP JUMPDEST DUP3 DUP2 DUP4 CALLDATACOPY PUSH0 DUP4 DUP4 ADD MSTORE POP POP POP JUMP JUMPDEST PUSH0 PUSH2 0x2AF PUSH2 0x2AA DUP5 PUSH2 0x25F JUMP JUMPDEST PUSH2 0x245 JUMP JUMPDEST SWAP1 POP DUP3 DUP2 MSTORE PUSH1 0x20 DUP2 ADD DUP5 DUP5 DUP5 ADD GT ISZERO PUSH2 0x2CB JUMPI PUSH2 0x2CA PUSH2 0x1D3 JUMP JUMPDEST JUMPDEST PUSH2 0x2D6 DUP5 DUP3 DUP6 PUSH2 0x28F JUMP JUMPDEST POP SWAP4 SWAP3 POP POP POP JUMP JUMPDEST PUSH0 DUP3 PUSH1 0x1F DUP4 ADD SLT PUSH2 0x2F2 JUMPI PUSH2 0x2F1 PUSH2 0x1CF JUMP JUMPDEST JUMPDEST DUP2 CALLDATALOAD PUSH2 0x302 DUP5 DUP3 PUSH1 0x20 DUP7 ADD PUSH2 0x29D JUMP JUMPDEST SWAP2 POP POP SWAP3 SWAP2 POP POP JUMP JUMPDEST PUSH0 DUP2 SWAP1 POP SWAP2 SWAP1 POP JUMP JUMPDEST PUSH2 0x31D DUP2 PUSH2 0x30B JUMP JUMPDEST DUP2 EQ PUSH2 0x327 JUMPI PUSH0 DUP1 REVERT JUMPDEST POP JUMP JUMPDEST PUSH0 DUP2 CALLDATALOAD SWAP1 POP PUSH2 0x338 DUP2 PUSH2 0x314 JUMP JUMPDEST SWAP3 SWAP2 POP POP JUMP JUMPDEST PUSH0 PUSH20 0xFFFFFFFFFFFFFFFFFFFFFFFFFFFFFFFFFFFFFFFF DUP3 AND SWAP1 POP SWAP2 SWAP1 POP JUMP JUMPDEST PUSH0 PUSH2 0x367 DUP3 PUSH2 0x33E JUMP JUMPDEST SWAP1 POP SWAP2 SWAP1 POP JUMP JUMPDEST PUSH2 0x377 DUP2 PUSH2 0x35D JUMP JUMPDEST DUP2 EQ PUSH2 0x381 JUMPI PUSH0 DUP1 REVERT JUMPDEST POP JUMP JUMPDEST PUSH0 DUP2 CALLDATALOAD SWAP1 POP PUSH2 0x392 DUP2 PUSH2 0x36E JUMP JUMPDEST SWAP3 SWAP2 POP POP JUMP JUMPDEST PUSH0 DUP2 ISZERO ISZERO SWAP1 POP SWAP2 SWAP1 POP JUMP JUMPDEST PUSH2 0x3AC DUP2 PUSH2 0x398 JUMP JUMPDEST DUP2 EQ PUSH2 0x3B6 JUMPI PUSH0 DUP1 REVERT JUMPDEST POP JUMP JUMPDEST PUSH0 DUP2 CALLDATALOAD SWAP1 POP PUSH2 0x3C7 DUP2 PUSH2 0x3A3 JUMP JUMPDEST SWAP3 SWAP2 POP POP JUMP JUMPDEST PUSH0 DUP1 PUSH0 DUP1 PUSH1 0x80 DUP6 DUP8 SUB SLT ISZERO PUSH2 0x3E5 JUMPI PUSH2 0x3E4 PUSH2 0x1C7 JUMP JUMPDEST JUMPDEST PUSH0 DUP6 ADD CALLDATALOAD PUSH8 0xFFFFFFFFFFFFFFFF DUP2 GT ISZERO PUSH2 0x402 JUMPI PUSH2 0x401 PUSH2 0x1CB JUMP JUMPDEST JUMPDEST PUSH2 0x40E DUP8 DUP3 DUP9 ADD PUSH2 0x2DE JUMP JUMPDEST SWAP5 POP POP PUSH1 0x20 PUSH2 0x41F DUP8 DUP3 DUP9 ADD PUSH2 0x32A JUMP JUMPDEST SWAP4 POP POP PUSH1 0x40 PUSH2 0x430 DUP8 DUP3 DUP9 ADD PUSH2 0x384 JUMP JUMPDEST SWAP3 POP POP PUSH1 0x60 PUSH2 0x441 DUP8 DUP3 DUP9 ADD PUSH2 0x3B9 JUMP JUMPDEST SWAP2 POP POP SWAP3 SWAP6 SWAP2 SWAP5 POP SWAP3 POP JUMP JUMPDEST PUSH0 DUP2 MLOAD SWAP1 POP SWAP2 SWAP1 POP JUMP JUMPDEST PUSH0 DUP3 DUP3 MSTORE PUSH1 0x20 DUP3 ADD SWAP1 POP SWAP3 SWAP2 POP POP JUMP JUMPDEST DUP3 DUP2 DUP4 MCOPY PUSH0 DUP4 DUP4 ADD MSTORE POP POP POP JUMP JUMPDEST PUSH0 PUSH2 0x47F DUP3 PUSH2 0x44D JUMP JUMPDEST PUSH2 0x489 DUP2 DUP6 PUSH2 0x457 JUMP JUMPDEST SWAP4 POP PUSH2 0x499 DUP2 DUP6 PUSH1 0x20 DUP7 ADD PUSH2 0x467 JUMP JUMPDEST PUSH2 0x4A2 DUP2 PUSH2 0x1D7 JUMP JUMPDEST DUP5 ADD SWAP2 POP POP SWAP3 SWAP2 POP POP JUMP JUMPDEST PUSH2 0x4B6 DUP2 PUSH2 0x30B JUMP JUMPDEST DUP3 MSTORE POP POP JUMP JUMPDEST PUSH2 0x4C5 DUP2 PUSH2 0x35D JUMP JUMPDEST DUP3 MSTORE POP POP JUMP JUMPDEST PUSH2 0x4D4 DUP2 PUSH2 0x398 JUMP JUMPDEST DUP3 MSTORE POP POP JUMP JUMPDEST PUSH0 PUSH1 0x80 DUP3 ADD SWAP1 POP DUP2 DUP2 SUB PUSH0 DUP4 ADD MSTORE PUSH2 0x4F2 DUP2 DUP8 PUSH2 0x475 JUMP JUMPDEST SWAP1 POP PUSH2 0x501 PUSH1 0x20 DUP4 ADD DUP7 PUSH2 0x4AD JUMP JUMPDEST PUSH2 0x50E PUSH1 0x40 DUP4 ADD DUP6 PUSH2 0x4BC JUMP JUMPDEST PUSH2 0x51B PUSH1 0x60 DUP4 ADD DUP5 PUSH2 0x4CB JUMP JUMPDEST SWAP6 SWAP5 POP POP POP POP POP JUMP JUMPDEST PUSH32 0x4E487B7100000000000000000000000000000000000000000000000000000000 PUSH0 MSTORE PUSH1 0x22 PUSH1 0x4 MSTORE PUSH1 0x24 PUSH0 REVERT JUMPDEST PUSH0 PUSH1 0x2 DUP3 DIV SWAP1 POP PUSH1 0x1 DUP3 AND DUP1 PUSH2 0x568 JUMPI PUSH1 0x7F DUP3 AND SWAP2 POP JUMPDEST PUSH1 0x20 DUP3 LT DUP2 SUB PUSH2 0x57B JUMPI PUSH2 0x57A PUSH2 0x524 JUMP JUMPDEST JUMPDEST POP SWAP2 SWAP1 POP JUMP JUMPDEST PUSH0 DUP2 SWAP1 POP DUP2 PUSH0 MSTORE PUSH1 0x20 PUSH0 KECCAK256 SWAP1 POP SWAP2 SWAP1 POP JUMP JUMPDEST PUSH0 PUSH1 0x20 PUSH1 0x1F DUP4 ADD DIV SWAP1 POP SWAP2 SWAP1 POP JUMP JUMPDEST PUSH0 DUP3 DUP3 SHL SWAP1 POP SWAP3 SWAP2 POP POP JUMP JUMPDEST PUSH0 PUSH1 0x8 DUP4 MUL PUSH2 0x5DD PUSH32 0xFFFFFFFFFFFFFFFFFFFFFFFFFFFFFFFFFFFFFFFFFFFFFFFFFFFFFFFFFFFFFFFF DUP3 PUSH2 0x5A2 JUMP JUMPDEST PUSH2 0x5E7 DUP7 DUP4 PUSH2 0x5A2 JUMP JUMPDEST SWAP6 POP DUP1 NOT DUP5 AND SWAP4 POP DUP1 DUP7 AND DUP5 OR SWAP3 POP POP POP SWAP4 SWAP3 POP POP POP JUMP JUMPDEST PUSH0 DUP2 SWAP1 POP SWAP2 SWAP1 POP JUMP JUMPDEST PUSH0 PUSH2 0x622 PUSH2 0x61D PUSH2 0x618 DUP5 PUSH2 0x30B JUMP JUMPDEST PUSH2 0x5FF JUMP JUMPDEST PUSH2 0x30B JUMP JUMPDEST SWAP1 POP SWAP2 SWAP1 POP JUMP JUMPDEST PUSH0 DUP2 SWAP1 POP SWAP2 SWAP1 POP JUMP JUMPDEST PUSH2 0x63B DUP4 PUSH2 0x608 JUMP JUMPDEST PUSH2 0x64F PUSH2 0x647 DUP3 PUSH2 0x629 JUMP JUMPDEST DUP5 DUP5 SLOAD PUSH2 0x5AE JUMP JUMPDEST DUP3 SSTORE POP POP POP POP JUMP JUMPDEST PUSH0 SWAP1 JUMP JUMPDEST PUSH2 0x663 PUSH2 0x657 JUMP JUMPDEST PUSH2 0x66E DUP2 DUP5 DUP5 PUSH2 0x632 JUMP JUMPDEST POP POP POP JUMP JUMPDEST JUMPDEST DUP2 DUP2 LT ISZERO PUSH2 0x691 JUMPI PUSH2 0x686 PUSH0 DUP3 PUSH2 0x65B JUMP JUMPDEST PUSH1 0x1 DUP2 ADD SWAP1 POP PUSH2 0x674 JUMP JUMPDEST POP POP JUMP JUMPDEST PUSH1 0x1F DUP3 GT ISZERO PUSH2 0x6D6 JUMPI PUSH2 0x6A7 DUP2 PUSH2 0x581 JUMP JUMPDEST PUSH2 0x6B0 DUP5 PUSH2 0x593 JUMP JUMPDEST DUP2 ADD PUSH1 0x20 DUP6 LT ISZERO PUSH2 0x6BF JUMPI DUP2 SWAP1 POP JUMPDEST PUSH2 0x6D3 PUSH2 0x6CB DUP6 PUSH2 0x593 JUMP JUMPDEST DUP4 ADD DUP3 PUSH2 0x673 JUMP JUMPDEST POP POP JUMPDEST POP POP POP JUMP JUMPDEST PUSH0 DUP3 DUP3 SHR SWAP1 POP SWAP3 SWAP2 POP POP JUMP JUMPDEST PUSH0 PUSH2 0x6F6 PUSH0 NOT DUP5 PUSH1 0x8 MUL PUSH2 0x6DB JUMP JUMPDEST NOT DUP1 DUP4 AND SWAP2 POP POP SWAP3 SWAP2 POP POP JUMP JUMPDEST PUSH0 PUSH2 0x70E DUP4 DUP4 PUSH2 0x6E7 JUMP JUMPDEST SWAP2 POP DUP3 PUSH1 0x2 MUL DUP3 OR SWAP1 POP SWAP3 SWAP2 POP POP JUMP JUMPDEST PUSH2 0x727 DUP3 PUSH2 0x44D JUMP JUMPDEST PUSH8 0xFFFFFFFFFFFFFFFF DUP2 GT ISZERO PUSH2 0x740 JUMPI PUSH2 0x73F PUSH2 0x1E7 JUMP JUMPDEST JUMPDEST PUSH2 0x74A DUP3 SLOAD PUSH2 0x551 JUMP JUMPDEST PUSH2 0x755 DUP3 DUP3 DUP6 PUSH2 0x695 JUMP JUMPDEST PUSH0 PUSH1 0x20 SWAP1 POP PUSH1 0x1F DUP4 GT PUSH1 0x1 DUP2 EQ PUSH2 0x786 JUMPI PUSH0 DUP5 ISZERO PUSH2 0x774 JUMPI DUP3 DUP8 ADD MLOAD SWAP1 POP JUMPDEST PUSH2 0x77E DUP6 DUP3 PUSH2 0x703 JUMP JUMPDEST DUP7 SSTORE POP PUSH2 0x7E5 JUMP JUMPDEST PUSH1 0x1F NOT DUP5 AND PUSH2 0x794 DUP7 PUSH2 0x581 JUMP JUMPDEST PUSH0 JUMPDEST DUP3 DUP2 LT ISZERO PUSH2 0x7BB JUMPI DUP5 DUP10 ADD MLOAD DUP3 SSTORE PUSH1 0x1 DUP3 ADD SWAP2 POP PUSH1 0x20 DUP6 ADD SWAP5 POP PUSH1 0x20 DUP2 ADD SWAP1 POP PUSH2 0x796 JUMP JUMPDEST DUP7 DUP4 LT ISZERO PUSH2 0x7D8 JUMPI DUP5 DUP10 ADD MLOAD PUSH2 0x7D4 PUSH1 0x1F DUP10 AND DUP3 PUSH2 0x6E7 JUMP JUMPDEST DUP4 SSTORE POP JUMPDEST PUSH1 0x1 PUSH1 0x2 DUP9 MUL ADD DUP9 SSTORE POP POP POP JUMPDEST POP POP POP POP POP POP JUMP INVALID LOG2 PUSH5 0x6970667358 0x22 SLT KECCAK256 0xAC PUSH31 0x104E84993D682B5FABF6F18036A43CF1CC0F0FB8D33B8892D588E69C29E964 PUSH20 0x6F6C634300081A00330000000000000000000000 "
				},
				"gasEstimates": {
					"creation": {
						"codeDepositCost": "416600",
						"executionCost": "453",
						"totalCost": "417053"
					},
					"external": {
						"getvalue()": "infinite",
						"setvalue(string,uint256,address,bool)": "infinite"
					}
				},
				"methodIdentifiers": {
					"getvalue()": "69bd01c4",
					"setvalue(string,uint256,address,bool)": "30bf1024"
				}
			},
			"storageLayout": {
				"storage": [
					{
						"astId": 3,
						"contract": "Challenge1.sol:simple",
						"label": "myname",
						"offset": 0,
						"slot": "0",
						"type": "t_string_storage"
					},
					{
						"astId": 5,
						"contract": "Challenge1.sol:simple",
						"label": "number",
						"offset": 0,
						"slot": "1",
						"type": "t_uint256"
					},
					{
						"astId": 7,
						"contract": "Challenge1.sol:simple",
						"label": "useraddress",
						"offset": 0,
						"slot": "2",
						"type": "t_address"
					},
					{
						"astId": 9,
						"contract": "Challenge1.sol:simple",
						"label": "value",
						"offset": 20,
						"slot": "2",
						"type": "t_bool"
					}
				],
				"types": {
					"t_address": {
						"encoding": "inplace",
						"label": "address",
						"numberOfBytes": "20"
					},
					"t_bool": {
						"encoding": "inplace",
						"label": "bool",
						"numberOfBytes": "1"
					},
					"t_string_storage": {
						"encoding": "bytes",
						"label": "string",
						"numberOfBytes": "32"
					},
					"t_uint256": {
						"encoding": "inplace",
						"label": "uint256",
						"numberOfBytes": "32"
					}
				}
			},
			"userdoc": {
				"kind": "user",
				"methods": {},
				"version": 1
			}
		}
	}
}